{
  "_format": "hh-sol-artifact-1",
  "contractName": "PurchaseOrderManager",
  "sourceName": "contracts/PurchaseOrderManager.sol",
  "abi": [
    {
      "anonymous": false,
      "inputs": [
        {
          "indexed": true,
          "internalType": "uint256",
          "name": "id",
          "type": "uint256"
        },
        {
          "indexed": true,
          "internalType": "address",
          "name": "creator",
          "type": "address"
        },
        {
          "indexed": false,
          "internalType": "string",
          "name": "supplierName",
          "type": "string"
        },
        {
          "indexed": false,
          "internalType": "uint256",
          "name": "totalAmount",
          "type": "uint256"
        },
        {
          "indexed": false,
          "internalType": "uint256",
          "name": "timestamp",
          "type": "uint256"
        }
      ],
      "name": "OrderCreated",
      "type": "event"
    },
    {
      "anonymous": false,
      "inputs": [
        {
          "indexed": true,
          "internalType": "uint256",
          "name": "id",
          "type": "uint256"
        },
        {
          "indexed": false,
          "internalType": "enum PurchaseOrderManager.Status",
          "name": "oldStatus",
          "type": "uint8"
        },
        {
          "indexed": false,
          "internalType": "enum PurchaseOrderManager.Status",
          "name": "newStatus",
          "type": "uint8"
        },
        {
          "indexed": true,
          "internalType": "address",
          "name": "changedBy",
          "type": "address"
        },
        {
          "indexed": false,
          "internalType": "uint256",
          "name": "timestamp",
          "type": "uint256"
        }
      ],
      "name": "StatusChanged",
      "type": "event"
    },
    {
      "inputs": [
        {
          "internalType": "string",
          "name": "supplierName",
          "type": "string"
        },
        {
          "internalType": "string",
          "name": "supplierAddr",
          "type": "string"
        },
        {
          "internalType": "string[]",
          "name": "itemNames",
          "type": "string[]"
        },
        {
          "internalType": "uint256[]",
          "name": "quantities",
          "type": "uint256[]"
        },
        {
          "internalType": "uint256[]",
          "name": "unitPrices",
          "type": "uint256[]"
        },
        {
          "internalType": "string",
          "name": "notes",
          "type": "string"
        },
        {
          "internalType": "uint256",
          "name": "expectedDelivery",
          "type": "uint256"
        }
      ],
      "name": "createOrder",
      "outputs": [
        {
          "internalType": "uint256",
          "name": "",
          "type": "uint256"
        }
      ],
      "stateMutability": "nonpayable",
      "type": "function"
    },
    {
      "inputs": [],
      "name": "getAllOrderIds",
      "outputs": [
        {
          "internalType": "uint256[]",
          "name": "",
          "type": "uint256[]"
        }
      ],
      "stateMutability": "view",
      "type": "function"
    },
    {
      "inputs": [
        {
          "internalType": "uint256",
          "name": "id",
          "type": "uint256"
        }
      ],
      "name": "getOrder",
      "outputs": [
        {
          "internalType": "uint256",
          "name": "orderId",
          "type": "uint256"
        },
        {
          "internalType": "address",
          "name": "creator",
          "type": "address"
        },
        {
          "internalType": "string",
          "name": "supplierName",
          "type": "string"
        },
        {
          "internalType": "string",
          "name": "supplierAddr",
          "type": "string"
        },
        {
          "internalType": "uint256",
          "name": "totalAmount",
          "type": "uint256"
        },
        {
          "internalType": "uint8",
          "name": "status",
          "type": "uint8"
        },
        {
          "internalType": "string",
          "name": "notes",
          "type": "string"
        },
        {
          "internalType": "uint256",
          "name": "createdAt",
          "type": "uint256"
        },
        {
          "internalType": "uint256",
          "name": "updatedAt",
          "type": "uint256"
        },
        {
          "internalType": "uint256",
          "name": "expectedDelivery",
          "type": "uint256"
        },
        {
          "internalType": "uint256",
          "name": "itemCount",
          "type": "uint256"
        }
      ],
      "stateMutability": "view",
      "type": "function"
    },
    {
      "inputs": [],
      "name": "getOrderCount",
      "outputs": [
        {
          "internalType": "uint256",
          "name": "",
          "type": "uint256"
        }
      ],
      "stateMutability": "view",
      "type": "function"
    },
    {
      "inputs": [
        {
          "internalType": "uint256",
          "name": "id",
          "type": "uint256"
        }
      ],
      "name": "getOrderItems",
      "outputs": [
        {
          "internalType": "string[]",
          "name": "names",
          "type": "string[]"
        },
        {
          "internalType": "uint256[]",
          "name": "quantities",
          "type": "uint256[]"
        },
        {
          "internalType": "uint256[]",
          "name": "unitPrices",
          "type": "uint256[]"
        }
      ],
      "stateMutability": "view",
      "type": "function"
    },
    {
      "inputs": [
        {
          "internalType": "string",
          "name": "name",
          "type": "string"
        }
      ],
      "name": "getSupplierStats",
      "outputs": [
        {
          "internalType": "uint256",
          "name": "total",
          "type": "uint256"
        },
        {
          "internalType": "uint256",
          "name": "approved",
          "type": "uint256"
        },
        {
          "internalType": "uint256",
          "name": "delivered",
          "type": "uint256"
        }
      ],
      "stateMutability": "view",
      "type": "function"
    },
    {
      "inputs": [
        {
          "internalType": "string",
          "name": "",
          "type": "string"
        }
      ],
      "name": "supplierApprovedOrders",
      "outputs": [
        {
          "internalType": "uint256",
          "name": "",
          "type": "uint256"
        }
      ],
      "stateMutability": "view",
      "type": "function"
    },
    {
      "inputs": [
        {
          "internalType": "string",
          "name": "",
          "type": "string"
        }
      ],
      "name": "supplierDeliveredOrders",
      "outputs": [
        {
          "internalType": "uint256",
          "name": "",
          "type": "uint256"
        }
      ],
      "stateMutability": "view",
      "type": "function"
    },
    {
      "inputs": [
        {
          "internalType": "string",
          "name": "",
          "type": "string"
        }
      ],
      "name": "supplierTotalOrders",
      "outputs": [
        {
          "internalType": "uint256",
          "name": "",
          "type": "uint256"
        }
      ],
      "stateMutability": "view",
      "type": "function"
    },
    {
      "inputs": [
        {
          "internalType": "uint256",
          "name": "id",
          "type": "uint256"
        },
        {
          "internalType": "enum PurchaseOrderManager.Status",
          "name": "newStatus",
          "type": "uint8"
        }
      ],
      "name": "updateStatus",
      "outputs": [],
      "stateMutability": "nonpayable",
      "type": "function"
    }
  ],
  "bytecode": "0x608060405234801561001057600080fd5b50612880806100206000396000f3fe608060405234801561001057600080fd5b506004361061009e5760003560e01c8063a5d2156711610066578063a5d215671461015d578063cd35901c1461018d578063d09ef241146101bd578063f7478343146101f7578063fb13e2eb146102275761009e565b80631216addc146100a35780633a1b3d31146100d55780634b2b612a146100f15780637a249c521461010f5780638d0a5fbb1461013f575b600080fd5b6100bd60048036038101906100b8919061152e565b610259565b6040516100cc93929190611590565b60405180910390f35b6100ef60048036038101906100ea9190611618565b6102c8565b005b6100f961081a565b6040516101069190611716565b60405180910390f35b610129600480360381019061012491906118e1565b610872565b6040516101369190611a2b565b60405180910390f35b610147610da0565b6040516101549190611a2b565b60405180910390f35b6101776004803603810190610172919061152e565b610da9565b6040516101849190611a2b565b60405180910390f35b6101a760048036038101906101a2919061152e565b610dd7565b6040516101b49190611a2b565b60405180910390f35b6101d760048036038101906101d29190611a46565b610e05565b6040516101ee9b9a99989796959493929190611b4f565b60405180910390f35b610211600480360381019061020c919061152e565b6110c5565b60405161021e9190611a2b565b60405180910390f35b610241600480360381019061023c9190611a46565b6110f3565b60405161025093929190611d1b565b60405180910390f35b600080600060048460405161026e9190611da3565b90815260200160405180910390205460058560405161028d9190611da3565b9081526020016040518091039020546006866040516102ac9190611da3565b9081526020016040518091039020549250925092509193909250565b816000600160008381526020019081526020016000206000015403610322576040517f08c379a000000000000000000000000000000000000000000000000000000000815260040161031990611e06565b60405180910390fd5b60006001600085815260200190815260200160002060050160009054906101000a900460ff16905082600581111561035d5761035c611e26565b5b8160058111156103705761036f611e26565b5b036103b0576040517f08c379a00000000000000000000000000000000000000000000000000000000081526004016103a790611ea1565b60405180910390fd5b600160058111156103c4576103c3611e26565b5b8360058111156103d7576103d6611e26565b5b0361049157600060058111156103f0576103ef611e26565b5b81600581111561040357610402611e26565b5b14610443576040517f08c379a000000000000000000000000000000000000000000000000000000000815260040161043a90611f0d565b60405180910390fd5b6005600160008681526020019081526020016000206002016040516104689190612025565b908152602001604051809103902060008154809291906104879061206b565b9190505550610768565b600260058111156104a5576104a4611e26565b5b8360058111156104b8576104b7611e26565b5b0361052957600060058111156104d1576104d0611e26565b5b8160058111156104e4576104e3611e26565b5b14610524576040517f08c379a000000000000000000000000000000000000000000000000000000000815260040161051b906120ff565b60405180910390fd5b610767565b6003600581111561053d5761053c611e26565b5b8360058111156105505761054f611e26565b5b036105c1576001600581111561056957610568611e26565b5b81600581111561057c5761057b611e26565b5b146105bc576040517f08c379a00000000000000000000000000000000000000000000000000000000081526004016105b39061216b565b60405180910390fd5b610766565b600460058111156105d5576105d4611e26565b5b8360058111156105e8576105e7611e26565b5b036106a2576003600581111561060157610600611e26565b5b81600581111561061457610613611e26565b5b14610654576040517f08c379a000000000000000000000000000000000000000000000000000000000815260040161064b906121d7565b60405180910390fd5b6006600160008681526020019081526020016000206002016040516106799190612025565b908152602001604051809103902060008154809291906106989061206b565b9190505550610765565b6005808111156106b5576106b4611e26565b5b8360058111156106c8576106c7611e26565b5b0361076457600060058111156106e1576106e0611e26565b5b8160058111156106f4576106f3611e26565b5b148061072457506001600581111561070f5761070e611e26565b5b81600581111561072257610721611e26565b5b145b610763576040517f08c379a000000000000000000000000000000000000000000000000000000000815260040161075a90612243565b60405180910390fd5b5b5b5b5b5b826001600086815260200190815260200160002060050160006101000a81548160ff021916908360058111156107a1576107a0611e26565b5b02179055504260016000868152602001908152602001600020600801819055503373ffffffffffffffffffffffffffffffffffffffff16847fa64a7b698076b5a0d3a3e30e0ee900a10f168b8050b6933182006f200daf950d83864260405161080c939291906122ab565b60405180910390a350505050565b6060600380548060200260200160405190810160405280929190818152602001828054801561086857602002820191906000526020600020905b815481526020019060010190808311610854575b5050505050905090565b6000808851116108b7576040517f08c379a00000000000000000000000000000000000000000000000000000000081526004016108ae9061232e565b60405180910390fd5b60008651116108fb576040517f08c379a00000000000000000000000000000000000000000000000000000000081526004016108f29061239a565b60405180910390fd5b8451865114801561090d575083518551145b61094c576040517f08c379a000000000000000000000000000000000000000000000000000000000815260040161094390612406565b60405180910390fd5b60008081548092919061095e9061206b565b91905055506000805490506000805b8851811015610b5b57600088828151811061098b5761098a612426565b5b6020026020010151116109d3576040517f08c379a00000000000000000000000000000000000000000000000000000000081526004016109ca906124a1565b60405180910390fd5b60008782815181106109e8576109e7612426565b5b602002602001015111610a30576040517f08c379a0000000000000000000000000000000000000000000000000000000008152600401610a279061250d565b60405180910390fd5b6002600084815260200190815260200160002060405180606001604052808b8481518110610a6157610a60612426565b5b602002602001015181526020018a8481518110610a8157610a80612426565b5b60200260200101518152602001898481518110610aa157610aa0612426565b5b602002602001015181525090806001815401808255809150506001900390600052602060002090600302016000909190919091506000820151816000019081610aea91906126c4565b5060208201518160010155604082015181600201555050868181518110610b1457610b13612426565b5b6020026020010151888281518110610b2f57610b2e612426565b5b6020026020010151610b419190612796565b82610b4c91906127d8565b9150808060010191505061096d565b506040518061016001604052808381526020013373ffffffffffffffffffffffffffffffffffffffff1681526020018b81526020018a815260200182815260200160006005811115610bb057610baf611e26565b5b81526020018681526020014281526020014281526020018581526020018951815250600160008481526020019081526020016000206000820151816000015560208201518160010160006101000a81548173ffffffffffffffffffffffffffffffffffffffff021916908373ffffffffffffffffffffffffffffffffffffffff1602179055506040820151816002019081610c4b91906126c4565b506060820151816003019081610c6191906126c4565b506080820151816004015560a08201518160050160006101000a81548160ff02191690836005811115610c9757610c96611e26565b5b021790555060c0820151816006019081610cb191906126c4565b5060e082015181600701556101008201518160080155610120820151816009015561014082015181600a0155905050600382908060018154018082558091505060019003906000526020600020016000909190919091505560048a604051610d199190611da3565b90815260200160405180910390206000815480929190610d389061206b565b91905055503373ffffffffffffffffffffffffffffffffffffffff16827faedcb053fcda5de7ad4f7b001480efe9b452dcf0f8112b8aef5f2b580cc883c18c8442604051610d889392919061280c565b60405180910390a38192505050979650505050505050565b60008054905090565b6004818051602081018201805184825260208301602085012081835280955050505050506000915090505481565b6006818051602081018201805184825260208301602085012081835280955050505050506000915090505481565b60008060608060008060606000806000808b6000600160008381526020019081526020016000206000015403610e70576040517f08c379a0000000000000000000000000000000000000000000000000000000008152600401610e6790611e06565b60405180910390fd5b6000600160008f8152602001908152602001600020905080600001548160010160009054906101000a900473ffffffffffffffffffffffffffffffffffffffff16826002018360030184600401548560050160009054906101000a900460ff166005811115610ee257610ee1611e26565b5b866006018760070154886008015489600901548a600a0154888054610f0690611f5c565b80601f0160208091040260200160405190810160405280929190818152602001828054610f3290611f5c565b8015610f7f5780601f10610f5457610100808354040283529160200191610f7f565b820191906000526020600020905b815481529060010190602001808311610f6257829003601f168201915b50505050509850878054610f9290611f5c565b80601f0160208091040260200160405190810160405280929190818152602001828054610fbe90611f5c565b801561100b5780601f10610fe05761010080835404028352916020019161100b565b820191906000526020600020905b815481529060010190602001808311610fee57829003601f168201915b5050505050975084805461101e90611f5c565b80601f016020809104026020016040519081016040528092919081815260200182805461104a90611f5c565b80156110975780601f1061106c57610100808354040283529160200191611097565b820191906000526020600020905b81548152906001019060200180831161107a57829003601f168201915b505050505094509c509c509c509c509c509c509c509c509c509c509c50505091939597999b90929496989a50565b6005818051602081018201805184825260208301602085012081835280955050505050506000915090505481565b6060806060836000600160008381526020019081526020016000206000015403611152576040517f08c379a000000000000000000000000000000000000000000000000000000000815260040161114990611e06565b60405180910390fd5b6000600260008781526020019081526020016000209050808054905067ffffffffffffffff81111561118757611186611403565b5b6040519080825280602002602001820160405280156111ba57816020015b60608152602001906001900390816111a55790505b509450808054905067ffffffffffffffff8111156111db576111da611403565b5b6040519080825280602002602001820160405280156112095781602001602082028036833780820191505090505b509350808054905067ffffffffffffffff81111561122a57611229611403565b5b6040519080825280602002602001820160405280156112585781602001602082028036833780820191505090505b50925060005b81805490508110156113ca5781818154811061127d5761127c612426565b5b9060005260206000209060030201600001805461129990611f5c565b80601f01602080910402602001604051908101604052809291908181526020018280546112c590611f5c565b80156113125780601f106112e757610100808354040283529160200191611312565b820191906000526020600020905b8154815290600101906020018083116112f557829003601f168201915b505050505086828151811061132a57611329612426565b5b602002602001018190525081818154811061134857611347612426565b5b90600052602060002090600302016001015485828151811061136d5761136c612426565b5b60200260200101818152505081818154811061138c5761138b612426565b5b9060005260206000209060030201600201548482815181106113b1576113b0612426565b5b602002602001018181525050808060010191505061125e565b5050509193909250565b6000604051905090565b600080fd5b600080fd5b600080fd5b600080fd5b6000601f19601f8301169050919050565b7f4e487b7100000000000000000000000000000000000000000000000000000000600052604160045260246000fd5b61143b826113f2565b810181811067ffffffffffffffff8211171561145a57611459611403565b5b80604052505050565b600061146d6113d4565b90506114798282611432565b919050565b600067ffffffffffffffff82111561149957611498611403565b5b6114a2826113f2565b9050602081019050919050565b82818337600083830152505050565b60006114d16114cc8461147e565b611463565b9050828152602081018484840111156114ed576114ec6113ed565b5b6114f88482856114af565b509392505050565b600082601f830112611515576115146113e8565b5b81356115258482602086016114be565b91505092915050565b600060208284031215611544576115436113de565b5b600082013567ffffffffffffffff811115611562576115616113e3565b5b61156e84828501611500565b91505092915050565b6000819050919050565b61158a81611577565b82525050565b60006060820190506115a56000830186611581565b6115b26020830185611581565b6115bf6040830184611581565b949350505050565b6115d081611577565b81146115db57600080fd5b50565b6000813590506115ed816115c7565b92915050565b6006811061160057600080fd5b50565b600081359050611612816115f3565b92915050565b6000806040838503121561162f5761162e6113de565b5b600061163d858286016115de565b925050602061164e85828601611603565b9150509250929050565b600081519050919050565b600082825260208201905092915050565b6000819050602082019050919050565b61168d81611577565b82525050565b600061169f8383611684565b60208301905092915050565b6000602082019050919050565b60006116c382611658565b6116cd8185611663565b93506116d883611674565b8060005b838110156117095781516116f08882611693565b97506116fb836116ab565b9250506001810190506116dc565b5085935050505092915050565b6000602082019050818103600083015261173081846116b8565b905092915050565b600067ffffffffffffffff82111561175357611752611403565b5b602082029050602081019050919050565b600080fd5b600061177c61177784611738565b611463565b9050808382526020820190506020840283018581111561179f5761179e611764565b5b835b818110156117e657803567ffffffffffffffff8111156117c4576117c36113e8565b5b8086016117d18982611500565b855260208501945050506020810190506117a1565b5050509392505050565b600082601f830112611805576118046113e8565b5b8135611815848260208601611769565b91505092915050565b600067ffffffffffffffff82111561183957611838611403565b5b602082029050602081019050919050565b600061185d6118588461181e565b611463565b905080838252602082019050602084028301858111156118805761187f611764565b5b835b818110156118a9578061189588826115de565b845260208401935050602081019050611882565b5050509392505050565b600082601f8301126118c8576118c76113e8565b5b81356118d884826020860161184a565b91505092915050565b600080600080600080600060e0888a031215611900576118ff6113de565b5b600088013567ffffffffffffffff81111561191e5761191d6113e3565b5b61192a8a828b01611500565b975050602088013567ffffffffffffffff81111561194b5761194a6113e3565b5b6119578a828b01611500565b965050604088013567ffffffffffffffff811115611978576119776113e3565b5b6119848a828b016117f0565b955050606088013567ffffffffffffffff8111156119a5576119a46113e3565b5b6119b18a828b016118b3565b945050608088013567ffffffffffffffff8111156119d2576119d16113e3565b5b6119de8a828b016118b3565b93505060a088013567ffffffffffffffff8111156119ff576119fe6113e3565b5b611a0b8a828b01611500565b92505060c0611a1c8a828b016115de565b91505092959891949750929550565b6000602082019050611a406000830184611581565b92915050565b600060208284031215611a5c57611a5b6113de565b5b6000611a6a848285016115de565b91505092915050565b600073ffffffffffffffffffffffffffffffffffffffff82169050919050565b6000611a9e82611a73565b9050919050565b611aae81611a93565b82525050565b600081519050919050565b600082825260208201905092915050565b60005b83811015611aee578082015181840152602081019050611ad3565b60008484015250505050565b6000611b0582611ab4565b611b0f8185611abf565b9350611b1f818560208601611ad0565b611b28816113f2565b840191505092915050565b600060ff82169050919050565b611b4981611b33565b82525050565b600061016082019050611b65600083018e611581565b611b72602083018d611aa5565b8181036040830152611b84818c611afa565b90508181036060830152611b98818b611afa565b9050611ba7608083018a611581565b611bb460a0830189611b40565b81810360c0830152611bc68188611afa565b9050611bd560e0830187611581565b611be3610100830186611581565b611bf1610120830185611581565b611bff610140830184611581565b9c9b505050505050505050505050565b600081519050919050565b600082825260208201905092915050565b6000819050602082019050919050565b600082825260208201905092915050565b6000611c5782611ab4565b611c618185611c3b565b9350611c71818560208601611ad0565b611c7a816113f2565b840191505092915050565b6000611c918383611c4c565b905092915050565b6000602082019050919050565b6000611cb182611c0f565b611cbb8185611c1a565b935083602082028501611ccd85611c2b565b8060005b85811015611d095784840389528151611cea8582611c85565b9450611cf583611c99565b925060208a01995050600181019050611cd1565b50829750879550505050505092915050565b60006060820190508181036000830152611d358186611ca6565b90508181036020830152611d4981856116b8565b90508181036040830152611d5d81846116b8565b9050949350505050565b600081905092915050565b6000611d7d82611ab4565b611d878185611d67565b9350611d97818560208601611ad0565b80840191505092915050565b6000611daf8284611d72565b915081905092915050565b7f4f7264657220646f6573206e6f74206578697374000000000000000000000000600082015250565b6000611df0601483611abf565b9150611dfb82611dba565b602082019050919050565b60006020820190508181036000830152611e1f81611de3565b9050919050565b7f4e487b7100000000000000000000000000000000000000000000000000000000600052602160045260246000fd5b7f53746174757320616c7265616479207365740000000000000000000000000000600082015250565b6000611e8b601283611abf565b9150611e9682611e55565b602082019050919050565b60006020820190508181036000830152611eba81611e7e565b9050919050565b7f43616e206f6e6c7920617070726f76652070656e64696e67206f726465727300600082015250565b6000611ef7601f83611abf565b9150611f0282611ec1565b602082019050919050565b60006020820190508181036000830152611f2681611eea565b9050919050565b7f4e487b7100000000000000000000000000000000000000000000000000000000600052602260045260246000fd5b60006002820490506001821680611f7457607f821691505b602082108103611f8757611f86611f2d565b5b50919050565b60008190508160005260206000209050919050565b60008154611faf81611f5c565b611fb98186611d67565b94506001821660008114611fd45760018114611fe95761201c565b60ff198316865281151582028601935061201c565b611ff285611f8d565b60005b8381101561201457815481890152600182019150602081019050611ff5565b838801955050505b50505092915050565b60006120318284611fa2565b915081905092915050565b7f4e487b7100000000000000000000000000000000000000000000000000000000600052601160045260246000fd5b600061207682611577565b91507fffffffffffffffffffffffffffffffffffffffffffffffffffffffffffffffff82036120a8576120a761203c565b5b600182019050919050565b7f43616e206f6e6c792072656a6563742070656e64696e67206f72646572730000600082015250565b60006120e9601e83611abf565b91506120f4826120b3565b602082019050919050565b60006020820190508181036000830152612118816120dc565b9050919050565b7f4d75737420626520617070726f766564206265666f7265207368697070696e67600082015250565b6000612155602083611abf565b91506121608261211f565b602082019050919050565b6000602082019050818103600083015261218481612148565b9050919050565b7f4d7573742062652073686970706564206265666f72652064656c697665727900600082015250565b60006121c1601f83611abf565b91506121cc8261218b565b602082019050919050565b600060208201905081810360008301526121f0816121b4565b9050919050565b7f43616e6e6f742063616e63656c20617420746869732073746167650000000000600082015250565b600061222d601b83611abf565b9150612238826121f7565b602082019050919050565b6000602082019050818103600083015261225c81612220565b9050919050565b6006811061227457612273611e26565b5b50565b600081905061228582612263565b919050565b600061229582612277565b9050919050565b6122a58161228a565b82525050565b60006060820190506122c0600083018661229c565b6122cd602083018561229c565b6122da6040830184611581565b949350505050565b7f537570706c696572206e616d6520726571756972656400000000000000000000600082015250565b6000612318601683611abf565b9150612323826122e2565b602082019050919050565b600060208201905081810360008301526123478161230b565b9050919050565b7f4174206c65617374206f6e65206974656d207265717569726564000000000000600082015250565b6000612384601a83611abf565b915061238f8261234e565b602082019050919050565b600060208201905081810360008301526123b381612377565b9050919050565b7f4172726179206c656e677468206d69736d617463680000000000000000000000600082015250565b60006123f0601583611abf565b91506123fb826123ba565b602082019050919050565b6000602082019050818103600083015261241f816123e3565b9050919050565b7f4e487b7100000000000000000000000000000000000000000000000000000000600052603260045260246000fd5b7f5175616e74697479206d757374206265203e2030000000000000000000000000600082015250565b600061248b601483611abf565b915061249682612455565b602082019050919050565b600060208201905081810360008301526124ba8161247e565b9050919050565b7f556e6974207072696365206d757374206265203e203000000000000000000000600082015250565b60006124f7601683611abf565b9150612502826124c1565b602082019050919050565b60006020820190508181036000830152612526816124ea565b9050919050565b60006020601f8301049050919050565b600082821b905092915050565b60006008830261257a7fffffffffffffffffffffffffffffffffffffffffffffffffffffffffffffffff8261253d565b612584868361253d565b95508019841693508086168417925050509392505050565b6000819050919050565b60006125c16125bc6125b784611577565b61259c565b611577565b9050919050565b6000819050919050565b6125db836125a6565b6125ef6125e7826125c8565b84845461254a565b825550505050565b600090565b6126046125f7565b61260f8184846125d2565b505050565b5b81811015612633576126286000826125fc565b600181019050612615565b5050565b601f8211156126785761264981611f8d565b6126528461252d565b81016020851015612661578190505b61267561266d8561252d565b830182612614565b50505b505050565b600082821c905092915050565b600061269b6000198460080261267d565b1980831691505092915050565b60006126b4838361268a565b9150826002028217905092915050565b6126cd82611ab4565b67ffffffffffffffff8111156126e6576126e5611403565b5b6126f08254611f5c565b6126fb828285612637565b600060209050601f83116001811461272e576000841561271c578287015190505b61272685826126a8565b86555061278e565b601f19841661273c86611f8d565b60005b828110156127645784890151825560018201915060208501945060208101905061273f565b86831015612781578489015161277d601f89168261268a565b8355505b6001600288020188555050505b505050505050565b60006127a182611577565b91506127ac83611577565b92508282026127ba81611577565b915082820484148315176127d1576127d061203c565b5b5092915050565b60006127e382611577565b91506127ee83611577565b92508282019050808211156128065761280561203c565b5b92915050565b600060608201905081810360008301526128268186611afa565b90506128356020830185611581565b6128426040830184611581565b94935050505056fea264697066735822122066d4b47fda10c03001ec92609c339989a69754ecb08500f50810abdc125027a364736f6c63430008180033",
  "linkReferences": {},
  "deployedLinkReferences": {}
}